{
  "contractName": "MyNFT",
  "abi": [
    {
      "inputs": [],
      "stateMutability": "nonpayable",
      "type": "constructor"
    },
    {
      "anonymous": false,
      "inputs": [
        {
          "indexed": true,
          "internalType": "address",
          "name": "owner",
          "type": "address"
        },
        {
          "indexed": true,
          "internalType": "address",
          "name": "approved",
          "type": "address"
        },
        {
          "indexed": true,
          "internalType": "uint256",
          "name": "tokenId",
          "type": "uint256"
        }
      ],
      "name": "Approval",
      "type": "event"
    },
    {
      "anonymous": false,
      "inputs": [
        {
          "indexed": true,
          "internalType": "address",
          "name": "owner",
          "type": "address"
        },
        {
          "indexed": true,
          "internalType": "address",
          "name": "operator",
          "type": "address"
        },
        {
          "indexed": false,
          "internalType": "bool",
          "name": "approved",
          "type": "bool"
        }
      ],
      "name": "ApprovalForAll",
      "type": "event"
    },
    {
      "anonymous": false,
      "inputs": [
        {
          "indexed": true,
          "internalType": "address",
          "name": "previousOwner",
          "type": "address"
        },
        {
          "indexed": true,
          "internalType": "address",
          "name": "newOwner",
          "type": "address"
        }
      ],
      "name": "OwnershipTransferred",
      "type": "event"
    },
    {
      "anonymous": false,
      "inputs": [
        {
          "indexed": true,
          "internalType": "address",
          "name": "from",
          "type": "address"
        },
        {
          "indexed": true,
          "internalType": "address",
          "name": "to",
          "type": "address"
        },
        {
          "indexed": true,
          "internalType": "uint256",
          "name": "tokenId",
          "type": "uint256"
        }
      ],
      "name": "Transfer",
      "type": "event"
    },
    {
      "inputs": [],
      "name": "MAX_SUPPLY",
      "outputs": [
        {
          "internalType": "uint256",
          "name": "",
          "type": "uint256"
        }
      ],
      "stateMutability": "view",
      "type": "function"
    },
    {
      "inputs": [
        {
          "internalType": "address",
          "name": "to",
          "type": "address"
        },
        {
          "internalType": "uint256",
          "name": "tokenId",
          "type": "uint256"
        }
      ],
      "name": "approve",
      "outputs": [],
      "stateMutability": "nonpayable",
      "type": "function"
    },
    {
      "inputs": [
        {
          "internalType": "address",
          "name": "owner",
          "type": "address"
        }
      ],
      "name": "balanceOf",
      "outputs": [
        {
          "internalType": "uint256",
          "name": "",
          "type": "uint256"
        }
      ],
      "stateMutability": "view",
      "type": "function"
    },
    {
      "inputs": [
        {
          "internalType": "uint256",
          "name": "tokenId",
          "type": "uint256"
        }
      ],
      "name": "getApproved",
      "outputs": [
        {
          "internalType": "address",
          "name": "",
          "type": "address"
        }
      ],
      "stateMutability": "view",
      "type": "function"
    },
    {
      "inputs": [
        {
          "internalType": "address",
          "name": "owner",
          "type": "address"
        },
        {
          "internalType": "address",
          "name": "operator",
          "type": "address"
        }
      ],
      "name": "isApprovedForAll",
      "outputs": [
        {
          "internalType": "bool",
          "name": "",
          "type": "bool"
        }
      ],
      "stateMutability": "view",
      "type": "function"
    },
    {
      "inputs": [],
      "name": "mintRate",
      "outputs": [
        {
          "internalType": "uint256",
          "name": "",
          "type": "uint256"
        }
      ],
      "stateMutability": "view",
      "type": "function"
    },
    {
      "inputs": [],
      "name": "name",
      "outputs": [
        {
          "internalType": "string",
          "name": "",
          "type": "string"
        }
      ],
      "stateMutability": "view",
      "type": "function"
    },
    {
      "inputs": [],
      "name": "owner",
      "outputs": [
        {
          "internalType": "address",
          "name": "",
          "type": "address"
        }
      ],
      "stateMutability": "view",
      "type": "function"
    },
    {
      "inputs": [
        {
          "internalType": "uint256",
          "name": "tokenId",
          "type": "uint256"
        }
      ],
      "name": "ownerOf",
      "outputs": [
        {
          "internalType": "address",
          "name": "",
          "type": "address"
        }
      ],
      "stateMutability": "view",
      "type": "function"
    },
    {
      "inputs": [],
      "name": "renounceOwnership",
      "outputs": [],
      "stateMutability": "nonpayable",
      "type": "function"
    },
    {
      "inputs": [
        {
          "internalType": "address",
          "name": "from",
          "type": "address"
        },
        {
          "internalType": "address",
          "name": "to",
          "type": "address"
        },
        {
          "internalType": "uint256",
          "name": "tokenId",
          "type": "uint256"
        }
      ],
      "name": "safeTransferFrom",
      "outputs": [],
      "stateMutability": "nonpayable",
      "type": "function"
    },
    {
      "inputs": [
        {
          "internalType": "address",
          "name": "from",
          "type": "address"
        },
        {
          "internalType": "address",
          "name": "to",
          "type": "address"
        },
        {
          "internalType": "uint256",
          "name": "tokenId",
          "type": "uint256"
        },
        {
          "internalType": "bytes",
          "name": "_data",
          "type": "bytes"
        }
      ],
      "name": "safeTransferFrom",
      "outputs": [],
      "stateMutability": "nonpayable",
      "type": "function"
    },
    {
      "inputs": [
        {
          "internalType": "address",
          "name": "operator",
          "type": "address"
        },
        {
          "internalType": "bool",
          "name": "approved",
          "type": "bool"
        }
      ],
      "name": "setApprovalForAll",
      "outputs": [],
      "stateMutability": "nonpayable",
      "type": "function"
    },
    {
      "inputs": [],
      "name": "symbol",
      "outputs": [
        {
          "internalType": "string",
          "name": "",
          "type": "string"
        }
      ],
      "stateMutability": "view",
      "type": "function"
    },
    {
      "inputs": [
        {
          "internalType": "uint256",
          "name": "index",
          "type": "uint256"
        }
      ],
      "name": "tokenByIndex",
      "outputs": [
        {
          "internalType": "uint256",
          "name": "",
          "type": "uint256"
        }
      ],
      "stateMutability": "view",
      "type": "function"
    },
    {
      "inputs": [
        {
          "internalType": "address",
          "name": "owner",
          "type": "address"
        },
        {
          "internalType": "uint256",
          "name": "index",
          "type": "uint256"
        }
      ],
      "name": "tokenOfOwnerByIndex",
      "outputs": [
        {
          "internalType": "uint256",
          "name": "",
          "type": "uint256"
        }
      ],
      "stateMutability": "view",
      "type": "function"
    },
    {
      "inputs": [
        {
          "internalType": "uint256",
          "name": "tokenId",
          "type": "uint256"
        }
      ],
      "name": "tokenURI",
      "outputs": [
        {
          "internalType": "string",
          "name": "",
          "type": "string"
        }
      ],
      "stateMutability": "view",
      "type": "function"
    },
    {
      "inputs": [],
      "name": "totalSupply",
      "outputs": [
        {
          "internalType": "uint256",
          "name": "",
          "type": "uint256"
        }
      ],
      "stateMutability": "view",
      "type": "function"
    },
    {
      "inputs": [
        {
          "internalType": "address",
          "name": "from",
          "type": "address"
        },
        {
          "internalType": "address",
          "name": "to",
          "type": "address"
        },
        {
          "internalType": "uint256",
          "name": "tokenId",
          "type": "uint256"
        }
      ],
      "name": "transferFrom",
      "outputs": [],
      "stateMutability": "nonpayable",
      "type": "function"
    },
    {
      "inputs": [
        {
          "internalType": "address",
          "name": "newOwner",
          "type": "address"
        }
      ],
      "name": "transferOwnership",
      "outputs": [],
      "stateMutability": "nonpayable",
      "type": "function"
    },
    {
      "inputs": [
        {
          "internalType": "address",
          "name": "to",
          "type": "address"
        }
      ],
      "name": "mintNFT",
      "outputs": [],
      "stateMutability": "payable",
      "type": "function"
    },
    {
      "inputs": [
        {
          "internalType": "bytes4",
          "name": "interfaceId",
          "type": "bytes4"
        }
      ],
      "name": "supportsInterface",
      "outputs": [
        {
          "internalType": "bool",
          "name": "",
          "type": "bool"
        }
      ],
      "stateMutability": "view",
      "type": "function"
    },
    {
      "inputs": [],
      "name": "withDraw",
      "outputs": [],
      "stateMutability": "nonpayable",
      "type": "function"
    }
  ],
  "bytecode": "0x6080604052662386f26fc10000600c556103e8600d553480156200002257600080fd5b506040518060400160405280600581526020017f4d794e46540000000000000000000000000000000000000000000000000000008152506040518060400160405280600381526020017f4e465400000000000000000000000000000000000000000000000000000000008152508160009080519060200190620000a7929190620001b7565b508060019080519060200190620000c0929190620001b7565b505050620000e3620000d7620000e960201b60201c565b620000f160201b60201c565b620002cc565b600033905090565b6000600a60009054906101000a900473ffffffffffffffffffffffffffffffffffffffff16905081600a60006101000a81548173ffffffffffffffffffffffffffffffffffffffff021916908373ffffffffffffffffffffffffffffffffffffffff1602179055508173ffffffffffffffffffffffffffffffffffffffff168173ffffffffffffffffffffffffffffffffffffffff167f8be0079c531659141344cd1fd0a4f28419497f9722a3daafe3b4186f6b6457e060405160405180910390a35050565b828054620001c59062000296565b90600052602060002090601f016020900481019282620001e9576000855562000235565b82601f106200020457805160ff191683800117855562000235565b8280016001018555821562000235579182015b828111156200023457825182559160200191906001019062000217565b5b50905062000244919062000248565b5090565b5b808211156200026357600081600090555060010162000249565b5090565b7f4e487b7100000000000000000000000000000000000000000000000000000000600052602260045260246000fd5b60006002820490506001821680620002af57607f821691505b60208210811415620002c657620002c562000267565b5b50919050565b6137cf80620002dc6000396000f3fe6080604052600436106101405760003560e01c806354ba0f27116100b6578063a22cb4651161006f578063a22cb4651461044f578063b88d4fde14610478578063c87b56dd146104a1578063ca0dcf16146104de578063e985e9c514610509578063f2fde38b1461054657610140565b806354ba0f271461034c5780636352211e1461036857806370a08231146103a5578063715018a6146103e25780638da5cb5b146103f957806395d89b411461042457610140565b806318160ddd1161010857806318160ddd1461022a57806323b872dd146102555780632f745c591461027e57806332cb6b0c146102bb57806342842e0e146102e65780634f6ccce71461030f57610140565b806301ffc9a71461014557806306fdde0314610182578063081812fc146101ad578063095ea7b3146101ea5780630fdb1c1014610213575b600080fd5b34801561015157600080fd5b5061016c60048036038101906101679190612380565b61056f565b60405161017991906123c8565b60405180910390f35b34801561018e57600080fd5b50610197610581565b6040516101a4919061247c565b60405180910390f35b3480156101b957600080fd5b506101d460048036038101906101cf91906124d4565b610613565b6040516101e19190612542565b60405180910390f35b3480156101f657600080fd5b50610211600480360381019061020c9190612589565b610698565b005b34801561021f57600080fd5b506102286107b0565b005b34801561023657600080fd5b5061023f6108bf565b60405161024c91906125d8565b60405180910390f35b34801561026157600080fd5b5061027c600480360381019061027791906125f3565b6108cc565b005b34801561028a57600080fd5b506102a560048036038101906102a09190612589565b61092c565b6040516102b291906125d8565b60405180910390f35b3480156102c757600080fd5b506102d06109d1565b6040516102dd91906125d8565b60405180910390f35b3480156102f257600080fd5b5061030d600480360381019061030891906125f3565b6109d7565b005b34801561031b57600080fd5b50610336600480360381019061033191906124d4565b6109f7565b60405161034391906125d8565b60405180910390f35b61036660048036038101906103619190612646565b610a68565b005b34801561037457600080fd5b5061038f600480360381019061038a91906124d4565b610b17565b60405161039c9190612542565b60405180910390f35b3480156103b157600080fd5b506103cc60048036038101906103c79190612646565b610bc9565b6040516103d991906125d8565b60405180910390f35b3480156103ee57600080fd5b506103f7610c81565b005b34801561040557600080fd5b5061040e610d09565b60405161041b9190612542565b60405180910390f35b34801561043057600080fd5b50610439610d33565b604051610446919061247c565b60405180910390f35b34801561045b57600080fd5b506104766004803603810190610471919061269f565b610dc5565b005b34801561048457600080fd5b5061049f600480360381019061049a9190612814565b610ddb565b005b3480156104ad57600080fd5b506104c860048036038101906104c391906124d4565b610e3d565b6040516104d5919061247c565b60405180910390f35b3480156104ea57600080fd5b506104f3610ee4565b60405161050091906125d8565b60405180910390f35b34801561051557600080fd5b50610530600480360381019061052b9190612897565b610eea565b60405161053d91906123c8565b60405180910390f35b34801561055257600080fd5b5061056d60048036038101906105689190612646565b610f7e565b005b600061057a82611076565b9050919050565b60606000805461059090612906565b80601f01602080910402602001604051908101604052809291908181526020018280546105bc90612906565b80156106095780601f106105de57610100808354040283529160200191610609565b820191906000526020600020905b8154815290600101906020018083116105ec57829003601f168201915b5050505050905090565b600061061e826110f0565b61065d576040517f08c379a0000000000000000000000000000000000000000000000000000000008152600401610654906129aa565b60405180910390fd5b6004600083815260200190815260200160002060009054906101000a900473ffffffffffffffffffffffffffffffffffffffff169050919050565b60006106a382610b17565b90508073ffffffffffffffffffffffffffffffffffffffff168373ffffffffffffffffffffffffffffffffffffffff161415610714576040517f08c379a000000000000000000000000000000000000000000000000000000000815260040161070b90612a3c565b60405180910390fd5b8073ffffffffffffffffffffffffffffffffffffffff1661073361115c565b73ffffffffffffffffffffffffffffffffffffffff16148061076257506107618161075c61115c565b610eea565b5b6107a1576040517f08c379a000000000000000000000000000000000000000000000000000000000815260040161079890612ace565b60405180910390fd5b6107ab8383611164565b505050565b6107b861115c565b73ffffffffffffffffffffffffffffffffffffffff166107d6610d09565b73ffffffffffffffffffffffffffffffffffffffff161461082c576040517f08c379a000000000000000000000000000000000000000000000000000000000815260040161082390612b3a565b60405180910390fd5b6000471161086f576040517f08c379a000000000000000000000000000000000000000000000000000000000815260040161086690612ba6565b60405180910390fd5b610877610d09565b73ffffffffffffffffffffffffffffffffffffffff166108fc479081150290604051600060405180830381858888f193505050501580156108bc573d6000803e3d6000fd5b50565b6000600880549050905090565b6108dd6108d761115c565b8261121d565b61091c576040517f08c379a000000000000000000000000000000000000000000000000000000000815260040161091390612c38565b60405180910390fd5b6109278383836112fb565b505050565b600061093783610bc9565b8210610978576040517f08c379a000000000000000000000000000000000000000000000000000000000815260040161096f90612cca565b60405180910390fd5b600660008473ffffffffffffffffffffffffffffffffffffffff1673ffffffffffffffffffffffffffffffffffffffff168152602001908152602001600020600083815260200190815260200160002054905092915050565b600d5481565b6109f283838360405180602001604052806000815250610ddb565b505050565b6000610a016108bf565b8210610a42576040517f08c379a0000000000000000000000000000000000000000000000000000000008152600401610a3990612d5c565b60405180910390fd5b60088281548110610a5657610a55612d7c565b5b90600052602060002001549050919050565b600d54610a736108bf565b10610ab3576040517f08c379a0000000000000000000000000000000000000000000000000000000008152600401610aaa90612df7565b60405180910390fd5b600c543414610af7576040517f08c379a0000000000000000000000000000000000000000000000000000000008152600401610aee90612e63565b60405180910390fd5b610b01600b611562565b610b1481610b0f600b611578565b611586565b50565b6000806002600084815260200190815260200160002060009054906101000a900473ffffffffffffffffffffffffffffffffffffffff169050600073ffffffffffffffffffffffffffffffffffffffff168173ffffffffffffffffffffffffffffffffffffffff161415610bc0576040517f08c379a0000000000000000000000000000000000000000000000000000000008152600401610bb790612ef5565b60405180910390fd5b80915050919050565b60008073ffffffffffffffffffffffffffffffffffffffff168273ffffffffffffffffffffffffffffffffffffffff161415610c3a576040517f08c379a0000000000000000000000000000000000000000000000000000000008152600401610c3190612f87565b60405180910390fd5b600360008373ffffffffffffffffffffffffffffffffffffffff1673ffffffffffffffffffffffffffffffffffffffff168152602001908152602001600020549050919050565b610c8961115c565b73ffffffffffffffffffffffffffffffffffffffff16610ca7610d09565b73ffffffffffffffffffffffffffffffffffffffff1614610cfd576040517f08c379a0000000000000000000000000000000000000000000000000000000008152600401610cf490612b3a565b60405180910390fd5b610d0760006115a4565b565b6000600a60009054906101000a900473ffffffffffffffffffffffffffffffffffffffff16905090565b606060018054610d4290612906565b80601f0160208091040260200160405190810160405280929190818152602001828054610d6e90612906565b8015610dbb5780601f10610d9057610100808354040283529160200191610dbb565b820191906000526020600020905b815481529060010190602001808311610d9e57829003601f168201915b5050505050905090565b610dd7610dd061115c565b838361166a565b5050565b610dec610de661115c565b8361121d565b610e2b576040517f08c379a0000000000000000000000000000000000000000000000000000000008152600401610e2290612c38565b60405180910390fd5b610e37848484846117d7565b50505050565b6060610e48826110f0565b610e87576040517f08c379a0000000000000000000000000000000000000000000000000000000008152600401610e7e90613019565b60405180910390fd5b6000610e91611833565b90506000815111610eb15760405180602001604052806000815250610edc565b80610ebb84611853565b604051602001610ecc929190613075565b6040516020818303038152906040525b915050919050565b600c5481565b6000600560008473ffffffffffffffffffffffffffffffffffffffff1673ffffffffffffffffffffffffffffffffffffffff16815260200190815260200160002060008373ffffffffffffffffffffffffffffffffffffffff1673ffffffffffffffffffffffffffffffffffffffff16815260200190815260200160002060009054906101000a900460ff16905092915050565b610f8661115c565b73ffffffffffffffffffffffffffffffffffffffff16610fa4610d09565b73ffffffffffffffffffffffffffffffffffffffff1614610ffa576040517f08c379a0000000000000000000000000000000000000000000000000000000008152600401610ff190612b3a565b60405180910390fd5b600073ffffffffffffffffffffffffffffffffffffffff168173ffffffffffffffffffffffffffffffffffffffff16141561106a576040517f08c379a00000000000000000000000000000000000000000000000000000000081526004016110619061310b565b60405180910390fd5b611073816115a4565b50565b60007f780e9d63000000000000000000000000000000000000000000000000000000007bffffffffffffffffffffffffffffffffffffffffffffffffffffffff1916827bffffffffffffffffffffffffffffffffffffffffffffffffffffffff191614806110e957506110e8826119b4565b5b9050919050565b60008073ffffffffffffffffffffffffffffffffffffffff166002600084815260200190815260200160002060009054906101000a900473ffffffffffffffffffffffffffffffffffffffff1673ffffffffffffffffffffffffffffffffffffffff1614159050919050565b600033905090565b816004600083815260200190815260200160002060006101000a81548173ffffffffffffffffffffffffffffffffffffffff021916908373ffffffffffffffffffffffffffffffffffffffff160217905550808273ffffffffffffffffffffffffffffffffffffffff166111d783610b17565b73ffffffffffffffffffffffffffffffffffffffff167f8c5be1e5ebec7d5bd14f71427d1e84f3dd0314c0f7b2291e5b200ac8c7c3b92560405160405180910390a45050565b6000611228826110f0565b611267576040517f08c379a000000000000000000000000000000000000000000000000000000000815260040161125e9061319d565b60405180910390fd5b600061127283610b17565b90508073ffffffffffffffffffffffffffffffffffffffff168473ffffffffffffffffffffffffffffffffffffffff1614806112e157508373ffffffffffffffffffffffffffffffffffffffff166112c984610613565b73ffffffffffffffffffffffffffffffffffffffff16145b806112f257506112f18185610eea565b5b91505092915050565b8273ffffffffffffffffffffffffffffffffffffffff1661131b82610b17565b73ffffffffffffffffffffffffffffffffffffffff1614611371576040517f08c379a00000000000000000000000000000000000000000000000000000000081526004016113689061322f565b60405180910390fd5b600073ffffffffffffffffffffffffffffffffffffffff168273ffffffffffffffffffffffffffffffffffffffff1614156113e1576040517f08c379a00000000000000000000000000000000000000000000000000000000081526004016113d8906132c1565b60405180910390fd5b6113ec838383611a96565b6113f7600082611164565b6001600360008573ffffffffffffffffffffffffffffffffffffffff1673ffffffffffffffffffffffffffffffffffffffff16815260200190815260200160002060008282546114479190613310565b925050819055506001600360008473ffffffffffffffffffffffffffffffffffffffff1673ffffffffffffffffffffffffffffffffffffffff168152602001908152602001600020600082825461149e9190613344565b92505081905550816002600083815260200190815260200160002060006101000a81548173ffffffffffffffffffffffffffffffffffffffff021916908373ffffffffffffffffffffffffffffffffffffffff160217905550808273ffffffffffffffffffffffffffffffffffffffff168473ffffffffffffffffffffffffffffffffffffffff167fddf252ad1be2c89b69c2b068fc378daa952ba7f163c4a11628f55a4df523b3ef60405160405180910390a461155d838383611aa6565b505050565b6001816000016000828254019250508190555050565b600081600001549050919050565b6115a0828260405180602001604052806000815250611aab565b5050565b6000600a60009054906101000a900473ffffffffffffffffffffffffffffffffffffffff16905081600a60006101000a81548173ffffffffffffffffffffffffffffffffffffffff021916908373ffffffffffffffffffffffffffffffffffffffff1602179055508173ffffffffffffffffffffffffffffffffffffffff168173ffffffffffffffffffffffffffffffffffffffff167f8be0079c531659141344cd1fd0a4f28419497f9722a3daafe3b4186f6b6457e060405160405180910390a35050565b8173ffffffffffffffffffffffffffffffffffffffff168373ffffffffffffffffffffffffffffffffffffffff1614156116d9576040517f08c379a00000000000000000000000000000000000000000000000000000000081526004016116d0906133e6565b60405180910390fd5b80600560008573ffffffffffffffffffffffffffffffffffffffff1673ffffffffffffffffffffffffffffffffffffffff16815260200190815260200160002060008473ffffffffffffffffffffffffffffffffffffffff1673ffffffffffffffffffffffffffffffffffffffff16815260200190815260200160002060006101000a81548160ff0219169083151502179055508173ffffffffffffffffffffffffffffffffffffffff168373ffffffffffffffffffffffffffffffffffffffff167f17307eab39ab6107e8899845ad3d59bd9653f200f220920489ca2b5937696c31836040516117ca91906123c8565b60405180910390a3505050565b6117e28484846112fb565b6117ee84848484611b06565b61182d576040517f08c379a000000000000000000000000000000000000000000000000000000000815260040161182490613478565b60405180910390fd5b50505050565b60606040518060600160405280603d815260200161375d603d9139905090565b6060600082141561189b576040518060400160405280600181526020017f300000000000000000000000000000000000000000000000000000000000000081525090506119af565b600082905060005b600082146118cd5780806118b690613498565b915050600a826118c69190613510565b91506118a3565b60008167ffffffffffffffff8111156118e9576118e86126e9565b5b6040519080825280601f01601f19166020018201604052801561191b5781602001600182028036833780820191505090505b5090505b600085146119a8576001826119349190613310565b9150600a856119439190613541565b603061194f9190613344565b60f81b81838151811061196557611964612d7c565b5b60200101907effffffffffffffffffffffffffffffffffffffffffffffffffffffffffffff1916908160001a905350600a856119a19190613510565b945061191f565b8093505050505b919050565b60007f80ac58cd000000000000000000000000000000000000000000000000000000007bffffffffffffffffffffffffffffffffffffffffffffffffffffffff1916827bffffffffffffffffffffffffffffffffffffffffffffffffffffffff19161480611a7f57507f5b5e139f000000000000000000000000000000000000000000000000000000007bffffffffffffffffffffffffffffffffffffffffffffffffffffffff1916827bffffffffffffffffffffffffffffffffffffffffffffffffffffffff1916145b80611a8f5750611a8e82611c8e565b5b9050919050565b611aa1838383611cf8565b505050565b505050565b611ab58383611e0c565b611ac26000848484611b06565b611b01576040517f08c379a0000000000000000000000000000000000000000000000000000000008152600401611af890613478565b60405180910390fd5b505050565b6000611b278473ffffffffffffffffffffffffffffffffffffffff16611fe6565b15611c81578373ffffffffffffffffffffffffffffffffffffffff1663150b7a02611b5061115c565b8786866040518563ffffffff1660e01b8152600401611b7294939291906135c7565b6020604051808303816000875af1925050508015611bae57506040513d601f19601f82011682018060405250810190611bab9190613628565b60015b611c31573d8060008114611bde576040519150601f19603f3d011682016040523d82523d6000602084013e611be3565b606091505b50600081511415611c29576040517f08c379a0000000000000000000000000000000000000000000000000000000008152600401611c2090613478565b60405180910390fd5b805181602001fd5b63150b7a0260e01b7bffffffffffffffffffffffffffffffffffffffffffffffffffffffff1916817bffffffffffffffffffffffffffffffffffffffffffffffffffffffff191614915050611c86565b600190505b949350505050565b60007f01ffc9a7000000000000000000000000000000000000000000000000000000007bffffffffffffffffffffffffffffffffffffffffffffffffffffffff1916827bffffffffffffffffffffffffffffffffffffffffffffffffffffffff1916149050919050565b611d03838383612009565b600073ffffffffffffffffffffffffffffffffffffffff168373ffffffffffffffffffffffffffffffffffffffff161415611d4657611d418161200e565b611d85565b8173ffffffffffffffffffffffffffffffffffffffff168373ffffffffffffffffffffffffffffffffffffffff1614611d8457611d838382612057565b5b5b600073ffffffffffffffffffffffffffffffffffffffff168273ffffffffffffffffffffffffffffffffffffffff161415611dc857611dc3816121c4565b611e07565b8273ffffffffffffffffffffffffffffffffffffffff168273ffffffffffffffffffffffffffffffffffffffff1614611e0657611e058282612295565b5b5b505050565b600073ffffffffffffffffffffffffffffffffffffffff168273ffffffffffffffffffffffffffffffffffffffff161415611e7c576040517f08c379a0000000000000000000000000000000000000000000000000000000008152600401611e73906136a1565b60405180910390fd5b611e85816110f0565b15611ec5576040517f08c379a0000000000000000000000000000000000000000000000000000000008152600401611ebc9061370d565b60405180910390fd5b611ed160008383611a96565b6001600360008473ffffffffffffffffffffffffffffffffffffffff1673ffffffffffffffffffffffffffffffffffffffff1681526020019081526020016000206000828254611f219190613344565b92505081905550816002600083815260200190815260200160002060006101000a81548173ffffffffffffffffffffffffffffffffffffffff021916908373ffffffffffffffffffffffffffffffffffffffff160217905550808273ffffffffffffffffffffffffffffffffffffffff16600073ffffffffffffffffffffffffffffffffffffffff167fddf252ad1be2c89b69c2b068fc378daa952ba7f163c4a11628f55a4df523b3ef60405160405180910390a4611fe260008383611aa6565b5050565b6000808273ffffffffffffffffffffffffffffffffffffffff163b119050919050565b505050565b6008805490506009600083815260200190815260200160002081905550600881908060018154018082558091505060019003906000526020600020016000909190919091505550565b6000600161206484610bc9565b61206e9190613310565b9050600060076000848152602001908152602001600020549050818114612153576000600660008673ffffffffffffffffffffffffffffffffffffffff1673ffffffffffffffffffffffffffffffffffffffff168152602001908152602001600020600084815260200190815260200160002054905080600660008773ffffffffffffffffffffffffffffffffffffffff1673ffffffffffffffffffffffffffffffffffffffff168152602001908152602001600020600084815260200190815260200160002081905550816007600083815260200190815260200160002081905550505b6007600084815260200190815260200160002060009055600660008573ffffffffffffffffffffffffffffffffffffffff1673ffffffffffffffffffffffffffffffffffffffff16815260200190815260200160002060008381526020019081526020016000206000905550505050565b600060016008805490506121d89190613310565b905060006009600084815260200190815260200160002054905060006008838154811061220857612207612d7c565b5b90600052602060002001549050806008838154811061222a57612229612d7c565b5b9060005260206000200181905550816009600083815260200190815260200160002081905550600960008581526020019081526020016000206000905560088054806122795761227861372d565b5b6001900381819060005260206000200160009055905550505050565b60006122a083610bc9565b905081600660008573ffffffffffffffffffffffffffffffffffffffff1673ffffffffffffffffffffffffffffffffffffffff168152602001908152602001600020600083815260200190815260200160002081905550806007600084815260200190815260200160002081905550505050565b6000604051905090565b600080fd5b600080fd5b60007fffffffff0000000000000000000000000000000000000000000000000000000082169050919050565b61235d81612328565b811461236857600080fd5b50565b60008135905061237a81612354565b92915050565b6000602082840312156123965761239561231e565b5b60006123a48482850161236b565b91505092915050565b60008115159050919050565b6123c2816123ad565b82525050565b60006020820190506123dd60008301846123b9565b92915050565b600081519050919050565b600082825260208201905092915050565b60005b8381101561241d578082015181840152602081019050612402565b8381111561242c576000848401525b50505050565b6000601f19601f8301169050919050565b600061244e826123e3565b61245881856123ee565b93506124688185602086016123ff565b61247181612432565b840191505092915050565b600060208201905081810360008301526124968184612443565b905092915050565b6000819050919050565b6124b18161249e565b81146124bc57600080fd5b50565b6000813590506124ce816124a8565b92915050565b6000602082840312156124ea576124e961231e565b5b60006124f8848285016124bf565b91505092915050565b600073ffffffffffffffffffffffffffffffffffffffff82169050919050565b600061252c82612501565b9050919050565b61253c81612521565b82525050565b60006020820190506125576000830184612533565b92915050565b61256681612521565b811461257157600080fd5b50565b6000813590506125838161255d565b92915050565b600080604083850312156125a05761259f61231e565b5b60006125ae85828601612574565b92505060206125bf858286016124bf565b9150509250929050565b6125d28161249e565b82525050565b60006020820190506125ed60008301846125c9565b92915050565b60008060006060848603121561260c5761260b61231e565b5b600061261a86828701612574565b935050602061262b86828701612574565b925050604061263c868287016124bf565b9150509250925092565b60006020828403121561265c5761265b61231e565b5b600061266a84828501612574565b91505092915050565b61267c816123ad565b811461268757600080fd5b50565b60008135905061269981612673565b92915050565b600080604083850312156126b6576126b561231e565b5b60006126c485828601612574565b92505060206126d58582860161268a565b9150509250929050565b600080fd5b600080fd5b7f4e487b7100000000000000000000000000000000000000000000000000000000600052604160045260246000fd5b61272182612432565b810181811067ffffffffffffffff821117156127405761273f6126e9565b5b80604052505050565b6000612753612314565b905061275f8282612718565b919050565b600067ffffffffffffffff82111561277f5761277e6126e9565b5b61278882612432565b9050602081019050919050565b82818337600083830152505050565b60006127b76127b284612764565b612749565b9050828152602081018484840111156127d3576127d26126e4565b5b6127de848285612795565b509392505050565b600082601f8301126127fb576127fa6126df565b5b813561280b8482602086016127a4565b91505092915050565b6000806000806080858703121561282e5761282d61231e565b5b600061283c87828801612574565b945050602061284d87828801612574565b935050604061285e878288016124bf565b925050606085013567ffffffffffffffff81111561287f5761287e612323565b5b61288b878288016127e6565b91505092959194509250565b600080604083850312156128ae576128ad61231e565b5b60006128bc85828601612574565b92505060206128cd85828601612574565b9150509250929050565b7f4e487b7100000000000000000000000000000000000000000000000000000000600052602260045260246000fd5b6000600282049050600182168061291e57607f821691505b60208210811415612932576129316128d7565b5b50919050565b7f4552433732313a20617070726f76656420717565727920666f72206e6f6e657860008201527f697374656e7420746f6b656e0000000000000000000000000000000000000000602082015250565b6000612994602c836123ee565b915061299f82612938565b604082019050919050565b600060208201905081810360008301526129c381612987565b9050919050565b7f4552433732313a20617070726f76616c20746f2063757272656e74206f776e6560008201527f7200000000000000000000000000000000000000000000000000000000000000602082015250565b6000612a266021836123ee565b9150612a31826129ca565b604082019050919050565b60006020820190508181036000830152612a5581612a19565b9050919050565b7f4552433732313a20617070726f76652063616c6c6572206973206e6f74206f7760008201527f6e6572206e6f7220617070726f76656420666f7220616c6c0000000000000000602082015250565b6000612ab86038836123ee565b9150612ac382612a5c565b604082019050919050565b60006020820190508181036000830152612ae781612aab565b9050919050565b7f4f776e61626c653a2063616c6c6572206973206e6f7420746865206f776e6572600082015250565b6000612b246020836123ee565b9150612b2f82612aee565b602082019050919050565b60006020820190508181036000830152612b5381612b17565b9050919050565b7f4e6f7420656e6f7567682062616c616e636520746f2077697468647261770000600082015250565b6000612b90601e836123ee565b9150612b9b82612b5a565b602082019050919050565b60006020820190508181036000830152612bbf81612b83565b9050919050565b7f4552433732313a207472616e736665722063616c6c6572206973206e6f74206f60008201527f776e6572206e6f7220617070726f766564000000000000000000000000000000602082015250565b6000612c226031836123ee565b9150612c2d82612bc6565b604082019050919050565b60006020820190508181036000830152612c5181612c15565b9050919050565b7f455243373231456e756d657261626c653a206f776e657220696e646578206f7560008201527f74206f6620626f756e6473000000000000000000000000000000000000000000602082015250565b6000612cb4602b836123ee565b9150612cbf82612c58565b604082019050919050565b60006020820190508181036000830152612ce381612ca7565b9050919050565b7f455243373231456e756d657261626c653a20676c6f62616c20696e646578206f60008201527f7574206f6620626f756e64730000000000000000000000000000000000000000602082015250565b6000612d46602c836123ee565b9150612d5182612cea565b604082019050919050565b60006020820190508181036000830152612d7581612d39565b9050919050565b7f4e487b7100000000000000000000000000000000000000000000000000000000600052603260045260246000fd5b7f43616e2774206d696e74206d6f72650000000000000000000000000000000000600082015250565b6000612de1600f836123ee565b9150612dec82612dab565b602082019050919050565b60006020820190508181036000830152612e1081612dd4565b9050919050565b7f4e6f7420656e6f756768206d6174696300000000000000000000000000000000600082015250565b6000612e4d6010836123ee565b9150612e5882612e17565b602082019050919050565b60006020820190508181036000830152612e7c81612e40565b9050919050565b7f4552433732313a206f776e657220717565727920666f72206e6f6e657869737460008201527f656e7420746f6b656e0000000000000000000000000000000000000000000000602082015250565b6000612edf6029836123ee565b9150612eea82612e83565b604082019050919050565b60006020820190508181036000830152612f0e81612ed2565b9050919050565b7f4552433732313a2062616c616e636520717565727920666f7220746865207a6560008201527f726f206164647265737300000000000000000000000000000000000000000000602082015250565b6000612f71602a836123ee565b9150612f7c82612f15565b604082019050919050565b60006020820190508181036000830152612fa081612f64565b9050919050565b7f4552433732314d657461646174613a2055524920717565727920666f72206e6f60008201527f6e6578697374656e7420746f6b656e0000000000000000000000000000000000602082015250565b6000613003602f836123ee565b915061300e82612fa7565b604082019050919050565b6000602082019050818103600083015261303281612ff6565b9050919050565b600081905092915050565b600061304f826123e3565b6130598185613039565b93506130698185602086016123ff565b80840191505092915050565b60006130818285613044565b915061308d8284613044565b91508190509392505050565b7f4f776e61626c653a206e6577206f776e657220697320746865207a65726f206160008201527f6464726573730000000000000000000000000000000000000000000000000000602082015250565b60006130f56026836123ee565b915061310082613099565b604082019050919050565b60006020820190508181036000830152613124816130e8565b9050919050565b7f4552433732313a206f70657261746f7220717565727920666f72206e6f6e657860008201527f697374656e7420746f6b656e0000000000000000000000000000000000000000602082015250565b6000613187602c836123ee565b91506131928261312b565b604082019050919050565b600060208201905081810360008301526131b68161317a565b9050919050565b7f4552433732313a207472616e736665722066726f6d20696e636f72726563742060008201527f6f776e6572000000000000000000000000000000000000000000000000000000602082015250565b60006132196025836123ee565b9150613224826131bd565b604082019050919050565b600060208201905081810360008301526132488161320c565b9050919050565b7f4552433732313a207472616e7366657220746f20746865207a65726f2061646460008201527f7265737300000000000000000000000000000000000000000000000000000000602082015250565b60006132ab6024836123ee565b91506132b68261324f565b604082019050919050565b600060208201905081810360008301526132da8161329e565b9050919050565b7f4e487b7100000000000000000000000000000000000000000000000000000000600052601160045260246000fd5b600061331b8261249e565b91506133268361249e565b925082821015613339576133386132e1565b5b828203905092915050565b600061334f8261249e565b915061335a8361249e565b9250827fffffffffffffffffffffffffffffffffffffffffffffffffffffffffffffffff0382111561338f5761338e6132e1565b5b828201905092915050565b7f4552433732313a20617070726f766520746f2063616c6c657200000000000000600082015250565b60006133d06019836123ee565b91506133db8261339a565b602082019050919050565b600060208201905081810360008301526133ff816133c3565b9050919050565b7f4552433732313a207472616e7366657220746f206e6f6e20455243373231526560008201527f63656976657220696d706c656d656e7465720000000000000000000000000000602082015250565b60006134626032836123ee565b915061346d82613406565b604082019050919050565b6000602082019050818103600083015261349181613455565b9050919050565b60006134a38261249e565b91507fffffffffffffffffffffffffffffffffffffffffffffffffffffffffffffffff8214156134d6576134d56132e1565b5b600182019050919050565b7f4e487b7100000000000000000000000000000000000000000000000000000000600052601260045260246000fd5b600061351b8261249e565b91506135268361249e565b925082613536576135356134e1565b5b828204905092915050565b600061354c8261249e565b91506135578361249e565b925082613567576135666134e1565b5b828206905092915050565b600081519050919050565b600082825260208201905092915050565b600061359982613572565b6135a3818561357d565b93506135b38185602086016123ff565b6135bc81612432565b840191505092915050565b60006080820190506135dc6000830187612533565b6135e96020830186612533565b6135f660408301856125c9565b8181036060830152613608818461358e565b905095945050505050565b60008151905061362281612354565b92915050565b60006020828403121561363e5761363d61231e565b5b600061364c84828501613613565b91505092915050565b7f4552433732313a206d696e7420746f20746865207a65726f2061646472657373600082015250565b600061368b6020836123ee565b915061369682613655565b602082019050919050565b600060208201905081810360008301526136ba8161367e565b9050919050565b7f4552433732313a20746f6b656e20616c7265616479206d696e74656400000000600082015250565b60006136f7601c836123ee565b9150613702826136c1565b602082019050919050565b60006020820190508181036000830152613726816136ea565b9050919050565b7f4e487b7100000000000000000000000000000000000000000000000000000000600052603160045260246000fdfe68747470733a2f2f6d69726f2e6d656469756d2e636f6d2f6d61782f313132302f312a6b5f45593764634c5942355a356b387a684d637636672e706e67a26469706673582212201df5660eac59a883c3b74b61297c6b8eeaefd7802c4543de26792d4cf7a91f8664736f6c634300080c0033",
  "immutableReferences": {},
  "source": "// SPDX-License-Identifier: MIT\r\npragma solidity ^0.8.4;\r\n\r\nimport \"@openzeppelin/contracts/token/ERC721/ERC721.sol\";\r\nimport \"@openzeppelin/contracts/token/ERC721/extensions/ERC721Enumerable.sol\";\r\nimport \"@openzeppelin/contracts/access/Ownable.sol\";\r\nimport \"@openzeppelin/contracts/utils/Counters.sol\";\r\n\r\ncontract MyNFT is ERC721, ERC721Enumerable, Ownable {\r\n    using Counters for Counters.Counter;\r\n\r\n    Counters.Counter private _tokenIdCounter;\r\n    uint public mintRate = 0.01 ether;\r\n    uint public MAX_SUPPLY = 1000;\r\n\r\n    constructor() ERC721(\"MyNFT\", \"NFT\") {}\r\n\r\n    function _baseURI() internal pure override returns (string memory) {\r\n        return \"https://miro.medium.com/max/1120/1*k_EY7dcLYB5Z5k8zhMcv6g.png\";\r\n    }\r\n\r\n    function mintNFT(address to) public payable {\r\n        require(totalSupply() < MAX_SUPPLY, \"Can't mint more\");\r\n        require(msg.value == mintRate, \"Not enough matic\");\r\n        _tokenIdCounter.increment();\r\n        _safeMint(to, _tokenIdCounter.current());\r\n    }\r\n\r\n    function _beforeTokenTransfer(address from, address to, uint256 tokenId) internal override(ERC721, ERC721Enumerable) {\r\n        super._beforeTokenTransfer(from, to, tokenId);\r\n    }\r\n\r\n    function supportsInterface(bytes4 interfaceId) public view override(ERC721, ERC721Enumerable) returns (bool) {\r\n        return super.supportsInterface(interfaceId);\r\n    }\r\n\r\n    function withDraw() public onlyOwner {\r\n        require(address(this).balance > 0, \"Not enough balance to withdraw\");\r\n        payable(owner()).transfer(address(this).balance);\r\n    }\r\n}",
  "sourcePath": "D:\\assesment-test\\contracts\\MyNFT.sol",
  "compiler": {
    "name": "solc",
    "version": "0.8.12+commit.f00d7308.Emscripten.clang"
  },
  "schemaVersion": "3.4.2",
  "updatedAt": "2022-02-28T16:06:00.015Z",
  "devdoc": {
    "kind": "dev",
    "methods": {
      "approve(address,uint256)": {
        "details": "See {IERC721-approve}."
      },
      "balanceOf(address)": {
        "details": "See {IERC721-balanceOf}."
      },
      "getApproved(uint256)": {
        "details": "See {IERC721-getApproved}."
      },
      "isApprovedForAll(address,address)": {
        "details": "See {IERC721-isApprovedForAll}."
      },
      "name()": {
        "details": "See {IERC721Metadata-name}."
      },
      "owner()": {
        "details": "Returns the address of the current owner."
      },
      "ownerOf(uint256)": {
        "details": "See {IERC721-ownerOf}."
      },
      "renounceOwnership()": {
        "details": "Leaves the contract without owner. It will not be possible to call `onlyOwner` functions anymore. Can only be called by the current owner. NOTE: Renouncing ownership will leave the contract without an owner, thereby removing any functionality that is only available to the owner."
      },
      "safeTransferFrom(address,address,uint256)": {
        "details": "See {IERC721-safeTransferFrom}."
      },
      "safeTransferFrom(address,address,uint256,bytes)": {
        "details": "See {IERC721-safeTransferFrom}."
      },
      "setApprovalForAll(address,bool)": {
        "details": "See {IERC721-setApprovalForAll}."
      },
      "symbol()": {
        "details": "See {IERC721Metadata-symbol}."
      },
      "tokenByIndex(uint256)": {
        "details": "See {IERC721Enumerable-tokenByIndex}."
      },
      "tokenOfOwnerByIndex(address,uint256)": {
        "details": "See {IERC721Enumerable-tokenOfOwnerByIndex}."
      },
      "tokenURI(uint256)": {
        "details": "See {IERC721Metadata-tokenURI}."
      },
      "totalSupply()": {
        "details": "See {IERC721Enumerable-totalSupply}."
      },
      "transferFrom(address,address,uint256)": {
        "details": "See {IERC721-transferFrom}."
      },
      "transferOwnership(address)": {
        "details": "Transfers ownership of the contract to a new account (`newOwner`). Can only be called by the current owner."
      }
    },
    "version": 1
  },
  "userdoc": {
    "kind": "user",
    "methods": {},
    "version": 1
  }
}